{
  "_format": "hh-sol-artifact-1",
  "contractName": "StakeEther",
  "sourceName": "contracts/StakeETH.sol",
  "abi": [
    {
      "inputs": [],
      "stateMutability": "payable",
      "type": "constructor"
    },
    {
      "inputs": [],
      "name": "ReentrancyGuardReentrantCall",
      "type": "error"
    },
    {
      "anonymous": false,
      "inputs": [
        {
          "indexed": true,
          "internalType": "address",
          "name": "user",
          "type": "address"
        },
        {
          "indexed": false,
          "internalType": "uint256",
          "name": "amount",
          "type": "uint256"
        }
      ],
      "name": "RewardClaimed",
      "type": "event"
    },
    {
      "anonymous": false,
      "inputs": [
        {
          "indexed": true,
          "internalType": "address",
          "name": "user",
          "type": "address"
        },
        {
          "indexed": false,
          "internalType": "uint256",
          "name": "amount",
          "type": "uint256"
        },
        {
          "indexed": false,
          "internalType": "uint256",
          "name": "duration",
          "type": "uint256"
        }
      ],
      "name": "Staked",
      "type": "event"
    },
    {
      "anonymous": false,
      "inputs": [
        {
          "indexed": true,
          "internalType": "address",
          "name": "owner",
          "type": "address"
        },
        {
          "indexed": false,
          "internalType": "uint256",
          "name": "amount",
          "type": "uint256"
        }
      ],
      "name": "Withdrawal",
      "type": "event"
    },
    {
      "inputs": [],
      "name": "DAYS_IN_YEAR",
      "outputs": [
        {
          "internalType": "uint256",
          "name": "",
          "type": "uint256"
        }
      ],
      "stateMutability": "view",
      "type": "function"
    },
    {
      "inputs": [],
      "name": "FIXED_RATE",
      "outputs": [
        {
          "internalType": "uint256",
          "name": "",
          "type": "uint256"
        }
      ],
      "stateMutability": "view",
      "type": "function"
    },
    {
      "inputs": [],
      "name": "MAX_DURATION",
      "outputs": [
        {
          "internalType": "uint256",
          "name": "",
          "type": "uint256"
        }
      ],
      "stateMutability": "view",
      "type": "function"
    },
    {
      "inputs": [],
      "name": "MIN_DURATION",
      "outputs": [
        {
          "internalType": "uint256",
          "name": "",
          "type": "uint256"
        }
      ],
      "stateMutability": "view",
      "type": "function"
    },
    {
      "inputs": [
        {
          "internalType": "address",
          "name": "_address",
          "type": "address"
        },
        {
          "internalType": "uint256",
          "name": "_index",
          "type": "uint256"
        }
      ],
      "name": "claimReward",
      "outputs": [],
      "stateMutability": "nonpayable",
      "type": "function"
    },
    {
      "inputs": [
        {
          "internalType": "uint256",
          "name": "_index",
          "type": "uint256"
        }
      ],
      "name": "earlyWithdraw",
      "outputs": [],
      "stateMutability": "nonpayable",
      "type": "function"
    },
    {
      "inputs": [
        {
          "internalType": "address",
          "name": "_address",
          "type": "address"
        }
      ],
      "name": "getAllUserStakes",
      "outputs": [
        {
          "components": [
            {
              "internalType": "address",
              "name": "_address",
              "type": "address"
            },
            {
              "internalType": "uint256",
              "name": "endTime",
              "type": "uint256"
            },
            {
              "internalType": "uint256",
              "name": "expectedInterest",
              "type": "uint256"
            },
            {
              "internalType": "bool",
              "name": "isComplete",
              "type": "bool"
            }
          ],
          "internalType": "struct StakeEther.Stake[]",
          "name": "",
          "type": "tuple[]"
        }
      ],
      "stateMutability": "view",
      "type": "function"
    },
    {
      "inputs": [
        {
          "internalType": "address",
          "name": "_address",
          "type": "address"
        }
      ],
      "name": "getUserTotalStaked",
      "outputs": [
        {
          "internalType": "uint256",
          "name": "totalStaked",
          "type": "uint256"
        }
      ],
      "stateMutability": "view",
      "type": "function"
    },
    {
      "inputs": [],
      "name": "owner",
      "outputs": [
        {
          "internalType": "address",
          "name": "",
          "type": "address"
        }
      ],
      "stateMutability": "view",
      "type": "function"
    },
    {
      "inputs": [
        {
          "internalType": "uint256",
          "name": "durationInSeconds",
          "type": "uint256"
        }
      ],
      "name": "stake",
      "outputs": [],
      "stateMutability": "payable",
      "type": "function"
    },
    {
      "inputs": [
        {
          "internalType": "uint256",
          "name": "amount",
          "type": "uint256"
        }
      ],
      "name": "withdraw",
      "outputs": [],
      "stateMutability": "nonpayable",
      "type": "function"
    },
    {
      "stateMutability": "payable",
      "type": "receive"
    }
  ],
  "bytecode": "0x608060405260016000819055506000341162000052576040517f08c379a0000000000000000000000000000000000000000000000000000000008152600401620000499062000120565b60405180910390fd5b33600160006101000a81548173ffffffffffffffffffffffffffffffffffffffff021916908373ffffffffffffffffffffffffffffffffffffffff16021790555062000142565b600082825260208201905092915050565b7f496e697469616c20636f6e747261637420616d6f756e74206d7573742062652060008201527f67726561746572207468616e207a65726f2e0000000000000000000000000000602082015250565b60006200010860328362000099565b91506200011582620000aa565b604082019050919050565b600060208201905081810360008301526200013b81620000f9565b9050919050565b611c5180620001526000396000f3fe6080604052600436106100a05760003560e01c80637f5a259f116100645780637f5a259f1461018f5780638bd7ca57146101ba5780638da5cb5b146101f7578063a694fc3a14610222578063b1724b461461023e578063b6a6d17714610269576100a7565b806302378932146100ac578063174e31c4146100d75780632e1a7d4d146101005780636b5b9696146101295780636e2f169614610152576100a7565b366100a757005b600080fd5b3480156100b857600080fd5b506100c1610294565b6040516100ce919061110c565b60405180910390f35b3480156100e357600080fd5b506100fe60048036038101906100f991906111b6565b61029a565b005b34801561010c57600080fd5b50610127600480360381019061012291906111f6565b610604565b005b34801561013557600080fd5b50610150600480360381019061014b91906111f6565b6107e5565b005b34801561015e57600080fd5b5061017960048036038101906101749190611223565b610a6d565b604051610186919061110c565b60405180910390f35b34801561019b57600080fd5b506101a4610b42565b6040516101b1919061110c565b60405180910390f35b3480156101c657600080fd5b506101e160048036038101906101dc9190611223565b610b47565b6040516101ee919061138d565b60405180910390f35b34801561020357600080fd5b5061020c610d5e565b60405161021991906113be565b60405180910390f35b61023c600480360381019061023791906111f6565b610d84565b005b34801561024a57600080fd5b5061025361101d565b604051610260919061110c565b60405180910390f35b34801561027557600080fd5b5061027e611024565b60405161028b919061110c565b60405180910390f35b61016d81565b6102a2611029565b600073ffffffffffffffffffffffffffffffffffffffff168273ffffffffffffffffffffffffffffffffffffffff1603610311576040517f08c379a00000000000000000000000000000000000000000000000000000000081526004016103089061145c565b60405180910390fd5b600260008373ffffffffffffffffffffffffffffffffffffffff1673ffffffffffffffffffffffffffffffffffffffff168152602001908152602001600020805490508110610395576040517f08c379a000000000000000000000000000000000000000000000000000000000815260040161038c906114c8565b60405180910390fd5b6000600260008473ffffffffffffffffffffffffffffffffffffffff1673ffffffffffffffffffffffffffffffffffffffff16815260200190815260200160002082815481106103e8576103e76114e8565b5b906000526020600020906004020190508060010154421161043e576040517f08c379a000000000000000000000000000000000000000000000000000000000815260040161043590611563565b60405180910390fd5b8060030160009054906101000a900460ff1615610490576040517f08c379a0000000000000000000000000000000000000000000000000000000008152600401610487906115cf565b60405180910390fd5b80600201544710156104d7576040517f08c379a00000000000000000000000000000000000000000000000000000000081526004016104ce9061163b565b60405180910390fd5b60018160030160006101000a81548160ff02191690831515021790555060008373ffffffffffffffffffffffffffffffffffffffff16826002015460405161051e9061168c565b60006040518083038185875af1925050503d806000811461055b576040519150601f19603f3d011682016040523d82523d6000602084013e610560565b606091505b50509050806105a4576040517f08c379a000000000000000000000000000000000000000000000000000000000815260040161059b906116ed565b60405180910390fd5b8373ffffffffffffffffffffffffffffffffffffffff167f106f923f993c2149d49b4255ff723acafa1f2d94393f561d3eda32ae348f724183600201546040516105ee919061110c565b60405180910390a2505061060061106f565b5050565b600160009054906101000a900473ffffffffffffffffffffffffffffffffffffffff1673ffffffffffffffffffffffffffffffffffffffff163373ffffffffffffffffffffffffffffffffffffffff1614610694576040517f08c379a000000000000000000000000000000000000000000000000000000000815260040161068b90611759565b60405180910390fd5b61069c611029565b804710156106df576040517f08c379a00000000000000000000000000000000000000000000000000000000081526004016106d69061163b565b60405180910390fd5b60003373ffffffffffffffffffffffffffffffffffffffff16826040516107059061168c565b60006040518083038185875af1925050503d8060008114610742576040519150601f19603f3d011682016040523d82523d6000602084013e610747565b606091505b505090508061078b576040517f08c379a0000000000000000000000000000000000000000000000000000000008152600401610782906117c5565b60405180910390fd5b3373ffffffffffffffffffffffffffffffffffffffff167f7fcf532c15f0a6db0bd6d0e038bea71d30d808c7d98cb3bf7268a95bf5081b65836040516107d1919061110c565b60405180910390a2506107e261106f565b50565b6107ed611029565b600260003373ffffffffffffffffffffffffffffffffffffffff1673ffffffffffffffffffffffffffffffffffffffff168152602001908152602001600020805490508110610871576040517f08c379a000000000000000000000000000000000000000000000000000000000815260040161086890611831565b60405180910390fd5b6000600260003373ffffffffffffffffffffffffffffffffffffffff1673ffffffffffffffffffffffffffffffffffffffff16815260200190815260200160002082815481106108c4576108c36114e8565b5b906000526020600020906004020190508060030160009054906101000a900460ff1615610926576040517f08c379a000000000000000000000000000000000000000000000000000000000815260040161091d906115cf565b60405180910390fd5b8060010154421061096c576040517f08c379a00000000000000000000000000000000000000000000000000000000081526004016109639061189d565b60405180910390fd5b60006002826002015461097f919061191b565b90506000818360020154610993919061194c565b905060018360030160006101000a81548160ff02191690831515021790555060003373ffffffffffffffffffffffffffffffffffffffff16826040516109d89061168c565b60006040518083038185875af1925050503d8060008114610a15576040519150601f19603f3d011682016040523d82523d6000602084013e610a1a565b606091505b5050905080610a5e576040517f08c379a0000000000000000000000000000000000000000000000000000000008152600401610a55906119cc565b60405180910390fd5b50505050610a6a61106f565b50565b600080600090505b600260008473ffffffffffffffffffffffffffffffffffffffff1673ffffffffffffffffffffffffffffffffffffffff16815260200190815260200160002080549050811015610b3c57600260008473ffffffffffffffffffffffffffffffffffffffff1673ffffffffffffffffffffffffffffffffffffffff1681526020019081526020016000208181548110610b1057610b0f6114e8565b5b90600052602060002090600402016002015482610b2d91906119ec565b91508080600101915050610a75565b50919050565b600a81565b6060600073ffffffffffffffffffffffffffffffffffffffff168273ffffffffffffffffffffffffffffffffffffffff1603610bb8576040517f08c379a0000000000000000000000000000000000000000000000000000000008152600401610baf9061145c565b60405180910390fd5b6000600260008473ffffffffffffffffffffffffffffffffffffffff1673ffffffffffffffffffffffffffffffffffffffff1681526020019081526020016000208054905011610c3d576040517f08c379a0000000000000000000000000000000000000000000000000000000008152600401610c3490611a6c565b60405180910390fd5b600260008373ffffffffffffffffffffffffffffffffffffffff1673ffffffffffffffffffffffffffffffffffffffff168152602001908152602001600020805480602002602001604051908101604052809291908181526020016000905b82821015610d5357838290600052602060002090600402016040518060800160405290816000820160009054906101000a900473ffffffffffffffffffffffffffffffffffffffff1673ffffffffffffffffffffffffffffffffffffffff1673ffffffffffffffffffffffffffffffffffffffff16815260200160018201548152602001600282015481526020016003820160009054906101000a900460ff16151515158152505081526020019060010190610c9c565b505050509050919050565b600160009054906101000a900473ffffffffffffffffffffffffffffffffffffffff1681565b600073ffffffffffffffffffffffffffffffffffffffff163373ffffffffffffffffffffffffffffffffffffffff1603610df3576040517f08c379a0000000000000000000000000000000000000000000000000000000008152600401610dea9061145c565b60405180910390fd5b60003411610e36576040517f08c379a0000000000000000000000000000000000000000000000000000000008152600401610e2d90611afe565b60405180910390fd5b603c8110158015610e4a5750624f1a008111155b610e89576040517f08c379a0000000000000000000000000000000000000000000000000000000008152600401610e8090611b90565b60405180910390fd5b6000610e9734600a84611079565b9050600060405180608001604052803373ffffffffffffffffffffffffffffffffffffffff1681526020018442610ece91906119ec565b8152602001838152602001600015158152509050600260003373ffffffffffffffffffffffffffffffffffffffff1673ffffffffffffffffffffffffffffffffffffffff16815260200190815260200160002081908060018154018082558091505060019003906000526020600020906004020160009091909190915060008201518160000160006101000a81548173ffffffffffffffffffffffffffffffffffffffff021916908373ffffffffffffffffffffffffffffffffffffffff160217905550602082015181600101556040820151816002015560608201518160030160006101000a81548160ff02191690831515021790555050503373ffffffffffffffffffffffffffffffffffffffff167f1449c6dd7851abc30abf37f57715f492010519147cc2652fbc38202c18a6ee903485604051611010929190611bb0565b60405180910390a2505050565b624f1a0081565b603c81565b600260005403611065576040517f3ee5aeb500000000000000000000000000000000000000000000000000000000815260040160405180910390fd5b6002600081905550565b6001600081905550565b6000806201518061016d61108d9190611bd9565b670de0b6b3a7640000846110a19190611bd9565b6110ab919061191b565b9050600068056bc75e2d631000008286886110c69190611bd9565b6110d09190611bd9565b6110da919061191b565b905080866110e891906119ec565b925050509392505050565b6000819050919050565b611106816110f3565b82525050565b600060208201905061112160008301846110fd565b92915050565b600080fd5b600073ffffffffffffffffffffffffffffffffffffffff82169050919050565b60006111578261112c565b9050919050565b6111678161114c565b811461117257600080fd5b50565b6000813590506111848161115e565b92915050565b611193816110f3565b811461119e57600080fd5b50565b6000813590506111b08161118a565b92915050565b600080604083850312156111cd576111cc611127565b5b60006111db85828601611175565b92505060206111ec858286016111a1565b9150509250929050565b60006020828403121561120c5761120b611127565b5b600061121a848285016111a1565b91505092915050565b60006020828403121561123957611238611127565b5b600061124784828501611175565b91505092915050565b600081519050919050565b600082825260208201905092915050565b6000819050602082019050919050565b6112858161114c565b82525050565b611294816110f3565b82525050565b60008115159050919050565b6112af8161129a565b82525050565b6080820160008201516112cb600085018261127c565b5060208201516112de602085018261128b565b5060408201516112f1604085018261128b565b50606082015161130460608501826112a6565b50505050565b600061131683836112b5565b60808301905092915050565b6000602082019050919050565b600061133a82611250565b611344818561125b565b935061134f8361126c565b8060005b83811015611380578151611367888261130a565b975061137283611322565b925050600181019050611353565b5085935050505092915050565b600060208201905081810360008301526113a7818461132f565b905092915050565b6113b88161114c565b82525050565b60006020820190506113d360008301846113af565b92915050565b600082825260208201905092915050565b7f496e76616c696420616464726573733a207a65726f206164647265737320646560008201527f7465637465642e00000000000000000000000000000000000000000000000000602082015250565b60006114466027836113d9565b9150611451826113ea565b604082019050919050565b6000602082019050818103600083015261147581611439565b9050919050565b7f496e76616c696420696e6465783a206f7574206f6620626f756e64732e000000600082015250565b60006114b2601d836113d9565b91506114bd8261147c565b602082019050919050565b600060208201905081810360008301526114e1816114a5565b9050919050565b7f4e487b7100000000000000000000000000000000000000000000000000000000600052603260045260246000fd5b7f5374616b6520706572696f6420686173206e6f742079657420656e6465642e00600082015250565b600061154d601f836113d9565b915061155882611517565b602082019050919050565b6000602082019050818103600083015261157c81611540565b9050919050565b7f5374616b6520616c726561647920636f6d706c657465642e0000000000000000600082015250565b60006115b96018836113d9565b91506115c482611583565b602082019050919050565b600060208201905081810360008301526115e8816115ac565b9050919050565b7f496e73756666696369656e7420636f6e74726163742062616c616e63652e0000600082015250565b6000611625601e836113d9565b9150611630826115ef565b602082019050919050565b6000602082019050818103600083015261165481611618565b9050919050565b600081905092915050565b50565b600061167660008361165b565b915061168182611666565b600082019050919050565b600061169782611669565b9150819050919050565b7f526577617264207472616e73666572206661696c65642e000000000000000000600082015250565b60006116d76017836113d9565b91506116e2826116a1565b602082019050919050565b60006020820190508181036000830152611706816116ca565b9050919050565b7f43616c6c6572206973206e6f7420746865206f776e6572000000000000000000600082015250565b60006117436017836113d9565b915061174e8261170d565b602082019050919050565b6000602082019050818103600083015261177281611736565b9050919050565b7f5769746864726177616c206661696c65642e0000000000000000000000000000600082015250565b60006117af6012836113d9565b91506117ba82611779565b602082019050919050565b600060208201905081810360008301526117de816117a2565b9050919050565b7f496e76616c696420696e6465783a206f7574206f6620626f756e647300000000600082015250565b600061181b601c836113d9565b9150611826826117e5565b602082019050919050565b6000602082019050818103600083015261184a8161180e565b9050919050565b7f5374616b696e6720706572696f642068617320656e6465640000000000000000600082015250565b60006118876018836113d9565b915061189282611851565b602082019050919050565b600060208201905081810360008301526118b68161187a565b9050919050565b7f4e487b7100000000000000000000000000000000000000000000000000000000600052601260045260246000fd5b7f4e487b7100000000000000000000000000000000000000000000000000000000600052601160045260246000fd5b6000611926826110f3565b9150611931836110f3565b925082611941576119406118bd565b5b828204905092915050565b6000611957826110f3565b9150611962836110f3565b925082820390508181111561197a576119796118ec565b5b92915050565b7f4561726c79207769746864726177616c206661696c6564000000000000000000600082015250565b60006119b66017836113d9565b91506119c182611980565b602082019050919050565b600060208201905081810360008301526119e5816119a9565b9050919050565b60006119f7826110f3565b9150611a02836110f3565b9250828201905080821115611a1a57611a196118ec565b5b92915050565b7f4e6f207374616b657320666f756e6420666f72207468697320757365722e0000600082015250565b6000611a56601e836113d9565b9150611a6182611a20565b602082019050919050565b60006020820190508181036000830152611a8581611a49565b9050919050565b7f5374616b6520616d6f756e74206d75737420626520677265617465722074686160008201527f6e207a65726f2e00000000000000000000000000000000000000000000000000602082015250565b6000611ae86027836113d9565b9150611af382611a8c565b604082019050919050565b60006020820190508181036000830152611b1781611adb565b9050919050565b7f4475726174696f6e206d757374206265206265747765656e2074686520616c6c60008201527f6f7765642072616e67652e000000000000000000000000000000000000000000602082015250565b6000611b7a602b836113d9565b9150611b8582611b1e565b604082019050919050565b60006020820190508181036000830152611ba981611b6d565b9050919050565b6000604082019050611bc560008301856110fd565b611bd260208301846110fd565b9392505050565b6000611be4826110f3565b9150611bef836110f3565b9250828202611bfd816110f3565b91508282048414831517611c1457611c136118ec565b5b509291505056fea2646970667358221220039e6e921ad2405fc13a71aff0fff3cd104b20be9ca864b6c894aac209e60b3b64736f6c63430008180033",
  "linkReferences": {},
  "deployedLinkReferences": {}
}