{
  "_format": "hh-sol-artifact-1",
  "contractName": "StakeERC20",
  "sourceName": "contracts/StakeERC20.sol",
  "abi": [
    {
      "inputs": [
        {
          "internalType": "contract IERC20",
          "name": "_stakingToken",
          "type": "address"
        }
      ],
      "stateMutability": "nonpayable",
      "type": "constructor"
    },
    {
      "inputs": [],
      "name": "ReentrancyGuardReentrantCall",
      "type": "error"
    },
    {
      "anonymous": false,
      "inputs": [
        {
          "indexed": true,
          "internalType": "address",
          "name": "user",
          "type": "address"
        },
        {
          "indexed": false,
          "internalType": "uint256",
          "name": "amount",
          "type": "uint256"
        }
      ],
      "name": "RewardClaimed",
      "type": "event"
    },
    {
      "anonymous": false,
      "inputs": [
        {
          "indexed": true,
          "internalType": "address",
          "name": "user",
          "type": "address"
        },
        {
          "indexed": false,
          "internalType": "uint256",
          "name": "amount",
          "type": "uint256"
        },
        {
          "indexed": false,
          "internalType": "uint256",
          "name": "duration",
          "type": "uint256"
        }
      ],
      "name": "Staked",
      "type": "event"
    },
    {
      "anonymous": false,
      "inputs": [
        {
          "indexed": true,
          "internalType": "address",
          "name": "owner",
          "type": "address"
        },
        {
          "indexed": false,
          "internalType": "uint256",
          "name": "amount",
          "type": "uint256"
        }
      ],
      "name": "Withdrawal",
      "type": "event"
    },
    {
      "inputs": [],
      "name": "DAYS_IN_YEAR",
      "outputs": [
        {
          "internalType": "uint256",
          "name": "",
          "type": "uint256"
        }
      ],
      "stateMutability": "view",
      "type": "function"
    },
    {
      "inputs": [],
      "name": "FIXED_RATE",
      "outputs": [
        {
          "internalType": "uint256",
          "name": "",
          "type": "uint256"
        }
      ],
      "stateMutability": "view",
      "type": "function"
    },
    {
      "inputs": [],
      "name": "MAX_DURATION",
      "outputs": [
        {
          "internalType": "uint256",
          "name": "",
          "type": "uint256"
        }
      ],
      "stateMutability": "view",
      "type": "function"
    },
    {
      "inputs": [],
      "name": "MIN_DURATION",
      "outputs": [
        {
          "internalType": "uint256",
          "name": "",
          "type": "uint256"
        }
      ],
      "stateMutability": "view",
      "type": "function"
    },
    {
      "inputs": [
        {
          "internalType": "uint256",
          "name": "_index",
          "type": "uint256"
        }
      ],
      "name": "claimReward",
      "outputs": [],
      "stateMutability": "nonpayable",
      "type": "function"
    },
    {
      "inputs": [
        {
          "internalType": "uint256",
          "name": "_index",
          "type": "uint256"
        }
      ],
      "name": "earlyWithdraw",
      "outputs": [],
      "stateMutability": "nonpayable",
      "type": "function"
    },
    {
      "inputs": [
        {
          "internalType": "address",
          "name": "_address",
          "type": "address"
        }
      ],
      "name": "getUserTotalStaked",
      "outputs": [
        {
          "internalType": "uint256",
          "name": "totalStaked",
          "type": "uint256"
        }
      ],
      "stateMutability": "view",
      "type": "function"
    },
    {
      "inputs": [],
      "name": "owner",
      "outputs": [
        {
          "internalType": "address",
          "name": "",
          "type": "address"
        }
      ],
      "stateMutability": "view",
      "type": "function"
    },
    {
      "inputs": [
        {
          "internalType": "uint256",
          "name": "amount",
          "type": "uint256"
        },
        {
          "internalType": "uint256",
          "name": "durationInSeconds",
          "type": "uint256"
        }
      ],
      "name": "stake",
      "outputs": [],
      "stateMutability": "nonpayable",
      "type": "function"
    },
    {
      "inputs": [],
      "name": "stakingToken",
      "outputs": [
        {
          "internalType": "contract IERC20",
          "name": "",
          "type": "address"
        }
      ],
      "stateMutability": "view",
      "type": "function"
    },
    {
      "inputs": [
        {
          "internalType": "address",
          "name": "",
          "type": "address"
        },
        {
          "internalType": "uint256",
          "name": "",
          "type": "uint256"
        }
      ],
      "name": "userStakes",
      "outputs": [
        {
          "internalType": "address",
          "name": "staker",
          "type": "address"
        },
        {
          "internalType": "uint256",
          "name": "amount",
          "type": "uint256"
        },
        {
          "internalType": "uint256",
          "name": "endTime",
          "type": "uint256"
        },
        {
          "internalType": "uint256",
          "name": "expectedReward",
          "type": "uint256"
        },
        {
          "internalType": "bool",
          "name": "isComplete",
          "type": "bool"
        }
      ],
      "stateMutability": "view",
      "type": "function"
    },
    {
      "inputs": [
        {
          "internalType": "uint256",
          "name": "amount",
          "type": "uint256"
        }
      ],
      "name": "withdraw",
      "outputs": [],
      "stateMutability": "nonpayable",
      "type": "function"
    }
  ],
  "bytecode": "0x60806040523480156200001157600080fd5b5060405162001a0e38038062001a0e833981810160405281019062000037919062000146565b600160008190555080600160006101000a81548173ffffffffffffffffffffffffffffffffffffffff021916908373ffffffffffffffffffffffffffffffffffffffff16021790555033600260006101000a81548173ffffffffffffffffffffffffffffffffffffffff021916908373ffffffffffffffffffffffffffffffffffffffff1602179055505062000178565b600080fd5b600073ffffffffffffffffffffffffffffffffffffffff82169050919050565b6000620000fa82620000cd565b9050919050565b60006200010e82620000ed565b9050919050565b620001208162000101565b81146200012c57600080fd5b50565b600081519050620001408162000115565b92915050565b6000602082840312156200015f576200015e620000c8565b5b60006200016f848285016200012f565b91505092915050565b61188680620001886000396000f3fe608060405234801561001057600080fd5b50600436106100b45760003560e01c80637f5a259f116100715780637f5a259f146101795780638da5cb5b14610197578063ae169a50146101b5578063b1724b46146101d1578063b5d5b5fa146101ef578063b6a6d17714610223576100b4565b806302378932146100b95780632e1a7d4d146100d75780636b5b9696146100f35780636e2f16961461010f57806372f702f31461013f5780637b0472f01461015d575b600080fd5b6100c1610241565b6040516100ce9190610f71565b60405180910390f35b6100f160048036038101906100ec9190610fbd565b610247565b005b61010d60048036038101906101089190610fbd565b6104b7565b005b61012960048036038101906101249190611048565b610742565b6040516101369190610f71565b60405180910390f35b610147610817565b60405161015491906110d4565b60405180910390f35b610177600480360381019061017291906110ef565b61083d565b005b610181610b2b565b60405161018e9190610f71565b60405180910390f35b61019f610b30565b6040516101ac919061113e565b60405180910390f35b6101cf60048036038101906101ca9190610fbd565b610b56565b005b6101d9610e0d565b6040516101e69190610f71565b60405180910390f35b61020960048036038101906102049190611159565b610e14565b60405161021a9594939291906111b4565b60405180910390f35b61022b610e94565b6040516102389190610f71565b60405180910390f35b61016d81565b600260009054906101000a900473ffffffffffffffffffffffffffffffffffffffff1673ffffffffffffffffffffffffffffffffffffffff163373ffffffffffffffffffffffffffffffffffffffff16146102d7576040517f08c379a00000000000000000000000000000000000000000000000000000000081526004016102ce90611264565b60405180910390fd5b6102df610e99565b80600160009054906101000a900473ffffffffffffffffffffffffffffffffffffffff1673ffffffffffffffffffffffffffffffffffffffff166370a08231306040518263ffffffff1660e01b815260040161033b919061113e565b602060405180830381865afa158015610358573d6000803e3d6000fd5b505050506040513d601f19601f8201168201806040525081019061037c9190611299565b10156103bd576040517f08c379a00000000000000000000000000000000000000000000000000000000081526004016103b490611312565b60405180910390fd5b600160009054906101000a900473ffffffffffffffffffffffffffffffffffffffff1673ffffffffffffffffffffffffffffffffffffffff1663a9059cbb33836040518363ffffffff1660e01b815260040161041a929190611332565b6020604051808303816000875af1158015610439573d6000803e3d6000fd5b505050506040513d601f19601f8201168201806040525081019061045d9190611387565b503373ffffffffffffffffffffffffffffffffffffffff167f7fcf532c15f0a6db0bd6d0e038bea71d30d808c7d98cb3bf7268a95bf5081b65826040516104a49190610f71565b60405180910390a26104b4610edf565b50565b6104bf610e99565b600360003373ffffffffffffffffffffffffffffffffffffffff1673ffffffffffffffffffffffffffffffffffffffff168152602001908152602001600020805490508110610543576040517f08c379a000000000000000000000000000000000000000000000000000000000815260040161053a90611400565b60405180910390fd5b6000600360003373ffffffffffffffffffffffffffffffffffffffff1673ffffffffffffffffffffffffffffffffffffffff168152602001908152602001600020828154811061059657610595611420565b5b906000526020600020906005020190508060040160009054906101000a900460ff16156105f8576040517f08c379a00000000000000000000000000000000000000000000000000000000081526004016105ef9061149b565b60405180910390fd5b8060020154421061063e576040517f08c379a000000000000000000000000000000000000000000000000000000000815260040161063590611507565b60405180910390fd5b6000600282600301546106519190611585565b90506000818360030154846001015461066a91906115b6565b61067491906115ea565b905060018360040160006101000a81548160ff021916908315150217905550600160009054906101000a900473ffffffffffffffffffffffffffffffffffffffff1673ffffffffffffffffffffffffffffffffffffffff1663a9059cbb33836040518363ffffffff1660e01b81526004016106f0929190611332565b6020604051808303816000875af115801561070f573d6000803e3d6000fd5b505050506040513d601f19601f820116820180604052508101906107339190611387565b5050505061073f610edf565b50565b600080600090505b600360008473ffffffffffffffffffffffffffffffffffffffff1673ffffffffffffffffffffffffffffffffffffffff1681526020019081526020016000208054905081101561081157600360008473ffffffffffffffffffffffffffffffffffffffff1673ffffffffffffffffffffffffffffffffffffffff16815260200190815260200160002081815481106107e5576107e4611420565b5b9060005260206000209060050201600101548261080291906115b6565b9150808060010191505061074a565b50919050565b600160009054906101000a900473ffffffffffffffffffffffffffffffffffffffff1681565b610845610e99565b60008211610888576040517f08c379a000000000000000000000000000000000000000000000000000000000815260040161087f90611690565b60405180910390fd5b603c811015801561089c5750624f1a008111155b6108db576040517f08c379a00000000000000000000000000000000000000000000000000000000081526004016108d290611722565b60405180910390fd5b600160009054906101000a900473ffffffffffffffffffffffffffffffffffffffff1673ffffffffffffffffffffffffffffffffffffffff166323b872dd3330856040518463ffffffff1660e01b815260040161093a93929190611742565b6020604051808303816000875af1158015610959573d6000803e3d6000fd5b505050506040513d601f19601f8201168201806040525081019061097d9190611387565b50600061098c83600a84610ee9565b905060006040518060a001604052803373ffffffffffffffffffffffffffffffffffffffff16815260200185815260200184426109c991906115b6565b8152602001838152602001600015158152509050600360003373ffffffffffffffffffffffffffffffffffffffff1673ffffffffffffffffffffffffffffffffffffffff16815260200190815260200160002081908060018154018082558091505060019003906000526020600020906005020160009091909190915060008201518160000160006101000a81548173ffffffffffffffffffffffffffffffffffffffff021916908373ffffffffffffffffffffffffffffffffffffffff16021790555060208201518160010155604082015181600201556060820151816003015560808201518160040160006101000a81548160ff02191690831515021790555050503373ffffffffffffffffffffffffffffffffffffffff167f1449c6dd7851abc30abf37f57715f492010519147cc2652fbc38202c18a6ee908585604051610b15929190611779565b60405180910390a25050610b27610edf565b5050565b600a81565b600260009054906101000a900473ffffffffffffffffffffffffffffffffffffffff1681565b610b5e610e99565b600360003373ffffffffffffffffffffffffffffffffffffffff1673ffffffffffffffffffffffffffffffffffffffff168152602001908152602001600020805490508110610be2576040517f08c379a0000000000000000000000000000000000000000000000000000000008152600401610bd990611400565b60405180910390fd5b6000600360003373ffffffffffffffffffffffffffffffffffffffff1673ffffffffffffffffffffffffffffffffffffffff1681526020019081526020016000208281548110610c3557610c34611420565b5b906000526020600020906005020190508060020154421015610c8c576040517f08c379a0000000000000000000000000000000000000000000000000000000008152600401610c83906117ee565b60405180910390fd5b8060040160009054906101000a900460ff1615610cde576040517f08c379a0000000000000000000000000000000000000000000000000000000008152600401610cd59061149b565b60405180910390fd5b60018160040160006101000a81548160ff021916908315150217905550600160009054906101000a900473ffffffffffffffffffffffffffffffffffffffff1673ffffffffffffffffffffffffffffffffffffffff1663a9059cbb3383600301548460010154610d4e91906115b6565b6040518363ffffffff1660e01b8152600401610d6b929190611332565b6020604051808303816000875af1158015610d8a573d6000803e3d6000fd5b505050506040513d601f19601f82011682018060405250810190610dae9190611387565b503373ffffffffffffffffffffffffffffffffffffffff167f106f923f993c2149d49b4255ff723acafa1f2d94393f561d3eda32ae348f72418260030154604051610df99190610f71565b60405180910390a250610e0a610edf565b50565b624f1a0081565b60036020528160005260406000208181548110610e3057600080fd5b9060005260206000209060050201600091509150508060000160009054906101000a900473ffffffffffffffffffffffffffffffffffffffff16908060010154908060020154908060030154908060040160009054906101000a900460ff16905085565b603c81565b600260005403610ed5576040517f3ee5aeb500000000000000000000000000000000000000000000000000000000815260040160405180910390fd5b6002600081905550565b6001600081905550565b6000806201518061016d610efd919061180e565b670de0b6b3a764000084610f11919061180e565b610f1b9190611585565b9050600068056bc75e2d63100000828688610f36919061180e565b610f40919061180e565b610f4a9190611585565b905080925050509392505050565b6000819050919050565b610f6b81610f58565b82525050565b6000602082019050610f866000830184610f62565b92915050565b600080fd5b610f9a81610f58565b8114610fa557600080fd5b50565b600081359050610fb781610f91565b92915050565b600060208284031215610fd357610fd2610f8c565b5b6000610fe184828501610fa8565b91505092915050565b600073ffffffffffffffffffffffffffffffffffffffff82169050919050565b600061101582610fea565b9050919050565b6110258161100a565b811461103057600080fd5b50565b6000813590506110428161101c565b92915050565b60006020828403121561105e5761105d610f8c565b5b600061106c84828501611033565b91505092915050565b6000819050919050565b600061109a61109561109084610fea565b611075565b610fea565b9050919050565b60006110ac8261107f565b9050919050565b60006110be826110a1565b9050919050565b6110ce816110b3565b82525050565b60006020820190506110e960008301846110c5565b92915050565b6000806040838503121561110657611105610f8c565b5b600061111485828601610fa8565b925050602061112585828601610fa8565b9150509250929050565b6111388161100a565b82525050565b6000602082019050611153600083018461112f565b92915050565b600080604083850312156111705761116f610f8c565b5b600061117e85828601611033565b925050602061118f85828601610fa8565b9150509250929050565b60008115159050919050565b6111ae81611199565b82525050565b600060a0820190506111c9600083018861112f565b6111d66020830187610f62565b6111e36040830186610f62565b6111f06060830185610f62565b6111fd60808301846111a5565b9695505050505050565b600082825260208201905092915050565b7f43616c6c6572206973206e6f7420746865206f776e6572000000000000000000600082015250565b600061124e601783611207565b915061125982611218565b602082019050919050565b6000602082019050818103600083015261127d81611241565b9050919050565b60008151905061129381610f91565b92915050565b6000602082840312156112af576112ae610f8c565b5b60006112bd84828501611284565b91505092915050565b7f496e73756666696369656e7420636f6e74726163742062616c616e63652e0000600082015250565b60006112fc601e83611207565b9150611307826112c6565b602082019050919050565b6000602082019050818103600083015261132b816112ef565b9050919050565b6000604082019050611347600083018561112f565b6113546020830184610f62565b9392505050565b61136481611199565b811461136f57600080fd5b50565b6000815190506113818161135b565b92915050565b60006020828403121561139d5761139c610f8c565b5b60006113ab84828501611372565b91505092915050565b7f496e76616c696420696e6465783a206f7574206f6620626f756e647300000000600082015250565b60006113ea601c83611207565b91506113f5826113b4565b602082019050919050565b60006020820190508181036000830152611419816113dd565b9050919050565b7f4e487b7100000000000000000000000000000000000000000000000000000000600052603260045260246000fd5b7f5374616b6520616c726561647920636f6d706c657465642e0000000000000000600082015250565b6000611485601883611207565b91506114908261144f565b602082019050919050565b600060208201905081810360008301526114b481611478565b9050919050565b7f5374616b696e6720706572696f642068617320656e6465640000000000000000600082015250565b60006114f1601883611207565b91506114fc826114bb565b602082019050919050565b60006020820190508181036000830152611520816114e4565b9050919050565b7f4e487b7100000000000000000000000000000000000000000000000000000000600052601260045260246000fd5b7f4e487b7100000000000000000000000000000000000000000000000000000000600052601160045260246000fd5b600061159082610f58565b915061159b83610f58565b9250826115ab576115aa611527565b5b828204905092915050565b60006115c182610f58565b91506115cc83610f58565b92508282019050808211156115e4576115e3611556565b5b92915050565b60006115f582610f58565b915061160083610f58565b925082820390508181111561161857611617611556565b5b92915050565b7f5374616b6520616d6f756e74206d75737420626520677265617465722074686160008201527f6e207a65726f2e00000000000000000000000000000000000000000000000000602082015250565b600061167a602783611207565b91506116858261161e565b604082019050919050565b600060208201905081810360008301526116a98161166d565b9050919050565b7f4475726174696f6e206d757374206265206265747765656e2074686520616c6c60008201527f6f7765642072616e67652e000000000000000000000000000000000000000000602082015250565b600061170c602b83611207565b9150611717826116b0565b604082019050919050565b6000602082019050818103600083015261173b816116ff565b9050919050565b6000606082019050611757600083018661112f565b611764602083018561112f565b6117716040830184610f62565b949350505050565b600060408201905061178e6000830185610f62565b61179b6020830184610f62565b9392505050565b7f5374616b6520706572696f6420686173206e6f742079657420656e6465642e00600082015250565b60006117d8601f83611207565b91506117e3826117a2565b602082019050919050565b60006020820190508181036000830152611807816117cb565b9050919050565b600061181982610f58565b915061182483610f58565b925082820261183281610f58565b9150828204841483151761184957611848611556565b5b509291505056fea264697066735822122053b3234225dded3a72d62a889b898d4c13b4bf6e6ef83345f4eed99bdf1cc2b764736f6c63430008180033",
  "linkReferences": {},
  "deployedLinkReferences": {}
}